:1000000071C000008FC000008DC000008BC00000D8
:1000100089C0000087C0000085C0000083C00000C8
:1000200081C000007FC000007DC000007BC00000D8
:1000300079C0000077C0000075C0000073C00000E8
:1000400071C0000091C300006DC000006BC00000D3
:1000500069C0000067C0000065C0000063C0000008
:1000600061C000005FC000005DC000005BC0000018
:1000700059C0000057C0000055C0000053C0000028
:1000800051C000004FC000004DC000004BC0000038
:1000900049C0000047C0000045C0000043C0000048
:1000A00041C000003FC000003DC000003BC0000058
:1000B00039C0000037C0000035C0000033C0000068
:1000C00031C000002FC000002DC000002BC0000078
:1000D00029C0000027C0000025C0000023C0000088
:1000E00021C0000011241FBECFEFD1E2DEBFCDBF83
:1000F00000E00CBF12E0A0E0B2E0E4E4F1E100E0D7
:100100000BBF02C007900D92AE30B107D9F72BE0BC
:10011000AEE0B2E001C01D92A73AB207E1F7E4D623
:100120000C94A0086DCFE0ECF0E0908195FFFDCF3E
:100130008093C6000895E8ECF0E0908195FFFDCF34
:100140008093CE000895D12C0F2EF5E09F2EF02D38
:10015000CC24C3946894BB24B1F8C0E1D2E006E19A
:1001600012E0A12C0F2EF3E0EF2EF02D6894FF2467
:10017000F2F880911B02811119C0888181FF03C0B0
:10018000F092020227C080FF03C0E092020222C068
:10019000F8018081882331F0D1101CC0E092020266
:1001A000DC2C18C0C0920202DA2C14C0813091F409
:1001B00080910002909101028F3591051CF4B0925C
:1001C000020208C08A3691051CF0C092020202C0E9
:1001D0009092020277D6CDCF89B185FB882780F92E
:1001E00080931A026FD6F8CFC6E1D2E011E0809179
:1001F0001A02882341F010931B02B3D290930F028E
:1002000080930E0212C080911B02813071F4A9D23A
:1002100020910E0230910F02821B930B883E934077
:1002200010F48881811110921B024CD6E0CF5298B5
:1002300008957894E1E9F0E0808180648083279AD2
:1002400008952F9A1092950010929400E1E9F0E041
:10025000808180648083808183608083C59BFECFA2
:10026000C59A2F98809196009091970090931D02C7
:1002700080931C02E1E9F0E080818F7B8083C59B45
:10028000FECFC59AE1E9F0E080818C7F80836091A8
:10029000960070919700CB01A0E0B0E020911C0285
:1002A00030911D02BC01CD01621B730B81099109C4
:1002B0004DD625E635EA49EC5DE3AED616D6CB0140
:1002C0000895BFDF2091000230910102820F931F39
:1002D00099230CF40196959587959093010280934C
:1002E0000002F0D5EECFE8ECF0E080818823ECF757
:1002F0008091CE000895882319F0813039F003C031
:1003000083E990E0089580E090E008958BE990E023
:100310000895DF92EF92FF920F931F93CF93DF9395
:10032000E62ED42EF52EE7DF8C01EE2049F0CD2D00
:10033000DF2DF12C8991F8011995F394FE10FACF75
:10034000DF91CF911F910F91FF90EF90DF90089573
:10035000DF92EF92FF920F931F93CF93DF93CDB76E
:10036000DEB7D62EBA01EDB6FEB62D2D30E0A901CE
:100370004F5F5F4FEDB7FEB7E41BF50B0FB6F89478
:10038000FEBF0FBEEDBF0DB71EB70F5F1F4F8183BE
:10039000A901C8010196CBD661E06D0DA80181E0ED
:1003A000B8DF0FB6F894FEBE0FBEEDBEDF91CF9161
:1003B0001F910F91FF90EF90DF9008951092CD0064
:1003C0001092CC0088E18093C900549A5C982FE980
:1003D00086E891E0215080409040E1F700C00000A5
:1003E00040E050E060E080E8B3DF87E893E1019708
:1003F000F1F700C0000040E050E060E082E8A8DFD4
:1004000087E893E10197F1F700C000000895CF93CA
:10041000DF9300D01F92CDB7DEB799838A837B83A9
:100420006C83AE014F5F5F4F64E089E891DF0F900E
:100430000F900F900F90DF91CF910895809102025D
:100440008330B9F028F4813041F0823061F022C06D
:100450008430A9F08530C9F01DC060E070E888ECF8
:1004600090E0D5DF17C060E070E888E39FEFCFDF52
:1004700011C061E070E084E690E0C9DF0BC06FEF6F
:100480007FEF84E690E0C3DF05C060E070E880E0C5
:1004900090E0BDDF17D5D2CFCF92DF92EF92FF92DF
:1004A0000F931F93CF93DF93CDB7DEB72B970FB684
:1004B000F894DEBF0FBECDBF6C0181E08B877E015B
:1004C0008BE0E80EF11CA70161E08EE841DF8E01B0
:1004D0000F5F1F4F08DFF80181938F01EE15FF05B5
:1004E000C9F78AE0FE013196D60101900D928A95F6
:1004F000E1F7C6012B960FB6F894DEBF0FBECDBF55
:10050000DF91CF911F910F91FF90EF90DF90CF90EF
:100510000895CF93DF93CDB7DEB72A970FB6F8943F
:10052000DEBF0FBECDBF1AE0CE010196B5DFFE01E2
:100530003196A0E1B2E0812F01900D928A95E1F70A
:10054000C1D4F2CF74DE75DE39DF8FE493EC01970E
:10055000F1F700C0000021E030E042E050E060E050
:1005600070E08CEE90E094D422E030E042E050E085
:1005700060E070E081E691E08BD423E030E042E07F
:1005800050E060E070E089E892E082D424E030E05E
:1005900042E050E060E070E08EE192E079D420E04B
:1005A00030E041E050E060E070E083EA90E070D439
:1005B00020E030E041E050E060E070E084EF90E067
:1005C00067D480E090E00895FFCFFF93FFB7F894E1
:1005D000FF93EF93DF93CF93BF93AF939F938F934B
:1005E0007F936F935F934F933F932F931F930F933B
:1005F000FF92EF92DF92CF92BF92AF929F928F9233
:100600007F926F925F924F923F922F921F920F9222
:100610008DB79EB79093A40B8093A30BE091A50B8D
:10062000F091A60BF395808191819EBF8DBF0F90B5
:100630001F902F903F904F905F906F907F908F9082
:100640009F90AF90BF90CF90DF90EF90FF900F9171
:100650001F912F913F914F915F916F917F918F915A
:100660009F91AF91BF91CF91DF91EF91FF91FFBF2C
:10067000FF910895FF93FFB7F894FF93EF93DF93F3
:10068000CF93BF93AF939F938F937F936F935F931A
:100690004F933F932F931F930F93FF92EF92DF920D
:1006A000CF92BF92AF929F928F927F926F925F9202
:1006B0004F923F922F921F920F92E091A50BF091D3
:1006C000A60B8DB79EB7F395918380838091A30B82
:1006D0009091A40B9EBF8DBF0F901F902F903F90C5
:1006E0004F905F906F907F908F909F90AF90BF9052
:1006F000CF90DF90EF90FF900F911F912F913F913E
:100700004F915F916F917F918F919F91AF91BF9129
:10071000CF91DF91EF91FF91FFBFFF910895FC0111
:10072000DB01A95FBE4F1D921C9280819181892BB4
:1007300029F471836083738362830895A281B381F6
:10074000A95FBE4F6D937C93738362830895CF93AB
:10075000CFB7F89483E0809351028CDFCFBFCF9165
:10076000089580E090E00895FF93FFB7F894F06853
:10077000FF93EF93DF93CF93BF93AF939F938F93A9
:100780007F936F935F934F933F932F931F930F9399
:10079000FF92EF92DF92CF92BF92AF929F928F9291
:1007A0007F926F925F924F923F922F921F920F9281
:1007B000E091A50BF091A60B8DB79EB7F3959183B1
:1007C00080838091A30B9091A40B9EBF8DBF81E08D
:1007D00080935102E8E8F0E0808191818F589D4F2D
:1007E000918380838091A30B9091A40B9EBF8DBFBA
:1007F0000F901F902F903F904F905F906F907F9041
:100800008F909F90AF90BF90CF90DF90EF90FF9030
:100810000F911F912F913F914F915F916F917F9118
:100820008F919F91AF91BF91CF91DF91EF91FF9108
:10083000FFBFFF910895F89480EF8AB98091030279
:10084000863028F4309103023F5F40E604C03091C7
:100850000302355040E970EF64E62AE054E17BB9C9
:10086000862FE9E6F8E13197F1F700C000008150EA
:10087000C1F71BB888E2E9E6F8E13197F1F700C06B
:1008800000008150C1F7332311F190E04BB9822F62
:10089000E9E6F8E13197F1F700C000008150C1F7B7
:1008A0001BB8822FE9E6F8E13197F1F700C00000AC
:1008B0008150C1F79F5F9313E9CF09C0E9E6F8E1E2
:1008C0003197F1F700C000008150C1F7C8CF852FE4
:1008D000F5CF60914502709146026115710509F4EA
:1008E00089C080914F02823009F08EC08091500201
:1008F000882309F485C080915002893008F080C0B7
:1009000083C0E0915002F0E0E25EFD4F80818823D9
:1009100009F484C07EC0E0915002F0E0EE0FFF1FAA
:10092000E95DFD4F80819181892B09F07BC07EC0FC
:10093000FB01E95FFE4F8081918190934602809395
:1009400045021182108202C06AE97AE0FB01E4529A
:10095000FF4F108280E87E968083EBE4F2E0808196
:100960009181DB01A450BF4F9C9380819181FB0159
:10097000E350FF4F808387EA93E03196908331966E
:1009800080833196CB0186529F4F9183808382E092
:100990003396808380914D0290914E0231969183DF
:1009A0008083EFE4F2E080811A968C93809150026C
:1009B00014978C938081823029F0833079F08130D4
:1009C000E1F412C0E0915002F0E0EE0FFF1FE95D8C
:1009D000FD4F7183608381E090E008958DE392E0A4
:1009E0009EDE81E090E0089581E492E098DE81E06F
:1009F00090E0089580E090E0089581E090E008950F
:100A000081E08093030217DF80914F02823009F466
:100A100078CF80914F02823049F47DCF84E080937B
:100A2000030209DF83E08093030205DF80914F0218
:100A3000882309F489CF7CCFE1E8F0E080818260EF
:100A40008083C0910C02D0910D029E01220F331FB2
:100A500021153105B1F4F9C1E42FF0E0EC5FFD4F51
:100A6000E081E93058F4F0E0E25EFD4F50834E5FE4
:100A7000842F90E08217930778F3E7C11092030266
:100A8000DADEE0910402E930C8F740E051E0EBCF54
:100A900010821D921D92CF01069695838483E75F95
:100AA000FE4FE217F307A1F71092990A1092980AE5
:100AB0000F2EF2E5CF2EF2E0DF2EF02DD09246027F
:100AC000C092450281E999E09093480280934702E1
:100AD0000F2EFBE4EF2EF2E0FF2EF02D84EE92E0DD
:100AE000D70111969C938E930FE412E0F8011082C7
:100AF000F0DE82EA92E0D70111969C938E9383E018
:100B0000F8018083E6DED092A60BC092A50B81E0AF
:100B10008093550380913D0290913E02009759F0D9
:100B2000FC01E95FFE4F8081918190933E028093AA
:100B30003D0211821082CD2B21F08091050280931D
:100B40003C02EFE6F0E08081826080838091840047
:100B5000909185008F589D4F9093890080938800D5
:100B600082E086BBCDE3D2E03324339401E412E08B
:100B70000F2EFAE96F2EFAE07F2EF02DA0900C02D6
:100B8000B0900D020F2EFFE4CF2EF2E0DF2EF02DFD
:100B90006894222421F875014501880C991C8091E4
:100BA000A50B9091A60BFC01ED5FFE4F208121303B
:100BB00009F052C18A599A4009F04DC08881998143
:100BC000009771F0FC01E95FFE4F2081318139838C
:100BD0002883118210829093A60B8093A50B34C0BA
:100BE00080913B0281113EC1A114B104A9F0E091B2
:100BF0003902F0913A02EC5FFD4FE081F0E0EE0F38
:100C0000FF1FE95DFD4F80819181009729F090934E
:100C1000A60B8093A50B18C0D8018D919C910097CD
:100C200079F0FC01E95FFE4F20813181D8012D93DD
:100C30003C93118210829093A60B8093A50B04C065
:100C40007092A60B6092A50BE091A50BF091A60BFC
:100C5000ED5FFE4F3082B9DC80915102823009F4A1
:100C600070C030F4882309F4EDC0813051F0E6C043
:100C7000843009F4C5C008F4A6C0853009F4E2C088
:100C8000DDC0E114F10409F448C080913C028150B8
:100C900080933C0280913C0281113FC08091A50B62
:100CA0009091A60B009771F0FC01EA5FFE4F8081E6
:100CB000823041F480913B02811104C088E080932E
:100CC0000302B9DD8091390290913A0202968815AB
:100CD000990528F490933A028093390204C0109247
:100CE0003A0210923902E0913902F0913A02EC5F37
:100CF000FD4F818180933C02E081EE2349F0F0E0DA
:100D0000EE0FFF1FE95DFD4F80819181892B19F462
:100D100030923B0202C010923B026091A50B709191
:100D2000A60BFB01EA5FFE4F8081813009F08AC08B
:100D300033978081813009F085C02082C801EFDCC3
:100D400081C0C7DD90934A02809349028091490295
:100D500090914A02892B09F475C0F6018081833095
:100D600061F48091A50B9091A60BFC01EA5FFE4F08
:100D70002081233009F07DC065C06091A50B709182
:100D8000A60BFB01EA5FFE4F8081813009F05AC05B
:100D9000D6018C91823069F4E0E5F2E08081E09147
:100DA0003902F0913A02EC5FFD4F9081981709F4F7
:100DB00065C0FB01ED5FFE4F8081823009F042C0CB
:100DC000C801ADDC3FC06091A50B7091A60BFAE0A5
:100DD0006A397F07B9F1FB01ED5FFE4F1082339650
:100DE0008081823049F43497E081F0E0EE0FFF1FFC
:100DF000E95DFD4F1182108285E492E090DC22C013
:100E00004090A50B5090A60BF201EA5FFE4F808147
:100E1000823049F0833019F0813059F407C0B201B3
:100E2000CE017DDC06C030923B0203C0B201C80196
:100E300076DCF201ED5FFE4F208204C08AE08093F1
:100E40000302F9DC10925102AACEE5E5F3E0A7E235
:100E5000B2E024E93AE01CCE88819981009709F03C
:100E6000B1CEBECED8018D919C91009709F0D9CE1C
:100E7000E7CEFC01ED5FFE4F20827FCFFB01ED5FEF
:100E8000FE4F208233968081813009F492CFDACFF1
:100E9000CF93CFB7F89490934C0280934B0270930A
:100EA0004E0260934D0240934F022093500282E025
:100EB00080935102DFDB8091490290914A02CFBFBB
:100EC000CF910895CF93DF931F92CDB7DEB78FB741
:100ED0008983F89484E080935102CCDB89818FBFB1
:100EE0000F90DF91CF910895A7DD04D06894B111E0
:100EF0008DC0089570D088F09F5790F0B92F992732
:100F0000B751A0F0D1F0660F771F881F991F1AF014
:100F1000BA95C9F712C0B13081F077D0B1E0089529
:100F200074C0672F782F8827B85F39F0B93FCCF3AA
:100F3000869577956795B395D9F73EF4909580950A
:100F4000709561957F4F8F4F9F4F0895E89409C02A
:100F500097FB3EF490958095709561957F4F8F4FEC
:100F60009F4F9923A9F0F92F96E9BB279395F69502
:100F7000879577956795B795F111F8CFFAF4BB0F80
:100F800011F460FF1BC06F5F7F4F8F4F9F4F16C0E4
:100F9000882311F096E911C0772321F09EE8872F6E
:100FA000762F05C0662371F096E8862F70E060E02A
:100FB0002AF09A95660F771F881FDAF7880F9695A3
:100FC000879597F9089557FD9058440F551F59F08C
:100FD0005F3F71F04795880F97FB991F61F09F3F26
:100FE00079F087950895121613061406551FF2CF4F
:100FF0004695F1DF08C0161617061806991FF1CF9F
:1010000086957105610508940895E894BB276627C5
:101010007727CB0197F908950BD078C069D028F0D5
:101020006ED018F0952309F05AC05FC01124EECF9E
:10103000CADFA0F3959FD1F3950F50E0551F629F33
:10104000F001729FBB27F00DB11D639FAA27F00D21
:10105000B11DAA1F649F6627B00DA11D661F829F48
:101060002227B00DA11D621F739FB00DA11D621F2D
:10107000839FA00D611D221F749F3327A00D611D4A
:10108000231F849F600D211D822F762F6A2F11242C
:101090009F5750408AF0E1F088234AF0EE0FFF1F7F
:1010A000BB1F661F771F881F91505040A9F79E3FB6
:1010B000510570F014C0AACF5F3FECF3983EDCF30B
:1010C000869577956795B795F795E7959F5FC1F7F3
:1010D000FE2B880F911D9695879597F9089597F99E
:1010E0009F6780E870E060E008959FEF80EC0895CE
:1010F00000240A94161617061806090608950024F7
:101100000A9412161306140605060895092E039470
:10111000000C11F4882352F0BB0F40F4BF2B11F4E4
:1011200060FF04C06F5F7F4F8F4F9F4F0895FB019B
:10113000DC0102C001900D9241505040D8F7089553
:04114000F894FFCF51
:0E114400640005060101020A03040401040010
:00000001FF
